:0200000490006A
:10000000F0FF01209DE10290797803907D780390C4
:100010008D7803909D780390AD78039000000000E8
:10002000000000000000000000000000C1D50390A7
:10003000BD7803900000000061D60390C178039062
:10004000EDE10290EDE10290EDE10290EDE1029030
:10005000EDE10290EDE10290EDE10290EDE1029020
:10006000EDE10290EDE10290EDE10290EDE1029010
:10007000EDE10290EDE10290EDE10290EDE1029000
:10008000EDE10290EDE10290EDE10290EDE10290F0
:10009000EDE10290EDE10290EDE10290EDE10290E0
:1000A000EDE10290EDE10290EDE10290EDE10290D0
:1000B000EDE10290EDE10290EDE10290EDE10290C0
:1000C000EDE10290EDE10290EDE10290EDE10290B0
:1000D000EDE10290EDE10290EDE10290EDE10290A0
:1000E000C5780390EDE1029000000000EDE1029080
:1000F000EDE10290EDE10290EDE10290EDE1029080
:10010000EDE10290EDE10290EDE10290EDE102906F
:10011000EDE10290EDE10290EDE10290EDE102905F
:10012000EDE10290EDE10290EDE10290EDE102904F
:10013000EDE10290EDE10290EDE10290EDE102903F
:1001400000000000000000000000000000000000AF
:10015000EDE10290EDE10290EDE10290EDE102901F
:10016000EDE10290EDE10290EDE10290EDE102900F
:10017000EDE10290EDE10290EDE10290EDE10290FF
:10018000EDE10290EDE10290EDE10290EDE10290EF
:10019000EDE10290EDE10290EDE10290EDE10290DF
:1001A000856D0390EDE1029051780390EDE10290AE
:1001B000EDE10290EDE10290EDE10290EDE10290BF
:1001C000EDE10290EDE10290EDE10290EDE10290AF
:1001D000EDE10290EDE10290EDE10290EDE102909F
:1001E000EDE10290EDE10290EDE10290EDE102908F
:1001F000EDE10290EDE10290EDE10290EDE102907F
:10020000EDE10290EDE10290EDE10290EDE102906E
:10021000EDE10290EDE10290EDE10290EDE102905E
:10022000EDE10290EDE10290EDE1029000000000AE
:10023000EDE10290EDE1029000000000EDE102909E
:10024000EDE10290EDE10290EDE10290EDE102902E
:10025000EDE10290EDE10290EDE10290EDE102901E
:10026000EDE10290EDE10290EDE10290EDE102900E
:10027000EDE10290EDE10290EDE10290000000005E
:10028000EDE10290EDE10290EDE10290000000004E
:0802900000000000EDE1029006
:10029800C0010000005300B852840A003400CA00AC
:1002A8000001C00E80340901DC5908800C80371128
:1002B800E750747311001D8A6222B2E9C8F10CC5B7
:1002C8008F18197E440851234393723AD6010007C8
:1002D80080CD08038B38E9C8D02144851355F20432
:1002E80010A6A2519B1A725A79183128510023631B
:1002F8002A2C6A310F45881C19167D092026C699B3
:10030800356DCEC82925E2180033636A84E8502188
:1003180043AC0D9F8E8468B1E847B746D3322D4968
:10032800B1E8D98F6C2332046BD4AE600067AD9E00
:100338001DA9D085CD81390D22C4BB24A255285DC5
:100348003302D088E429478B8C33BFDD4C51611BC5
:100358000021155AB4A89AE244882BF7F60590B5FF
:10036800634835663D6EECF891616AD92619B2CEBC
:100378001CB835433399319E6638A4A354003AA07B
:100388000338921C2D4D008E1F3F0E080000000000
:1003980042020000007B00B8526408803000DC0094
:1003A800009110C01B007416029003A00C80390045
:1003B800D200D05351A2453C00E000609311C09890
:1003C800921149E691883062448427D1742423F13C
:1003D800CCC4832101C8D4781223438B0A6D6A5494
:1003E8006891A1189400DAE014891100001A038BAF
:1003F800387158F32642913B4D5EF4D85068C3A239
:10040800008E6A8CA8F42A4B886861EA9C2931E23C
:10041800438611B3FAD48A50A11D9C4D0108894A1C
:10042800652DD8937501DC453857E35C8424295A37
:1004380044487325C3A14835222EC9D1224D867759
:1004480090CA648890A14D8A66B3F6E41AB4245120
:100458008962D196CDE99424C129744776DC3B366C
:10046800E952002800A490F850A445D068353E54BD
:10047800C8502661D41D81F2B65D3BA2658934EB74
:1004880074844B95BA4CB08AB74A271911B24DCE2D
:10049800371723B7E85D62668D347F2FA758BCA451
:1004A800CDEB37ADE324FE14000C003600E49028B1
:1004B8005223488B24B9E0D4804E05040000000084
:1004C8000000000000000000BF7BEFBDF7DE7BEFFF
:1004D800BDF747DF7BEFBDF7DEBB501F00F3E13F01
:1004E8001E80392E631E80EF83AF12A89C90CF0721
:1004F8009C15E04C10CF07D498F0D600FC3E780E3F
:10050800C0CCE2F1005887F301F0AB18CF04209F6C
:10051800F9AD00C0FDD60700E519000000509E01A6
:1005280000F75B1F00F299DF0A00BE8AF14C00E673
:10053800E17C0066168F07E0F7C173003526BC958D
:10054800C099209E1FC8E703CE0AF82A81CA8931BC
:100558000FC0F7E13F1E80392EF501300B7DEFBD4E
:10056800F7DE7BEF0ACFBDF72FC0020000000000C6
:100578001310600000000000120004D0DD7FD65A7E
:100588000500007DCE542BE2CD0173C0AC15F1E619
:10059800BD37C4BD170000042040324030C10248B6
:1005A8001204012E172400BF7B1FB0EF7D00C0C3CB
:1005B800028302801132619001000F0B140B006C52
:1005C800FEE0CF06008B02C503009162408618004A
:1005D8005024281EC0EFDE7BEFC7B8F7DEFB52F7CA
:1005E800DE1B000000000000C0EFDE7BFFC4BDF78B
:1005F800DE4DDC7BEF0DC024C1E401008307FC194C
:1006080000E0CF05830300160F78780020920119C7
:100618000C0078186032004032C1E6013CF7DE7BFE
:100628005F9E7BEFBD8B79EFBD0B000000000000E3
:1006380078EEBD7713F7DE7B7FE4BDF7DE057878CB
:1006480040B200C061804B0280C1010F7F00F0F012
:10065800806401400403324402C04382490280643A
:1006680081C10400973FF8F307000F034C06000010
:10067800F3FF7F0100446602000000000000000054
:1006880080D1BBA9FD0E00F1DB6BC098FB0B207776
:1006980001F0EC003789FEDFBB57907F5849EE9593
:1006A8008CFE30263E7402B5F091493C006F30D282
:1006B800C403201E2C01000CA400002E8E892700E4
:1006C800CCBDF74F0EA201C41823F93017006016ED
:1006D800FA370080AF507BCF0040FC5660BCF72B48
:1006E80000F49E81787EBB00C8F7BE05E3F70120C1
:1006F800E6EF74E0F901805867A13E0040BF780634
:100708000060167EF3F7FB3D00381851557F004C0A
:10071800CC400200140A000F560EA201F8F0F7624E
:100728003E00DF20A6A788EFAB20E7FFC11BFC0A2D
:10073800CFEFDCFB7F136BC1AF0380FC1A58B72BDC
:1007480061CCEFFF00C4FAFD936FBF0F00000000FB
:100758000000000000387B1700F2FDDFB3570000EF
:10076800C0DC33C5E83D000078DE00F29F00007E63
:10077800D4BEF74BD180FC25F084FC0D9EC313C07A
:100788005B7B803F1F18C50366790648124802A2A2
:10079800C50B0400805F7813480080E731162048B5
:1007A8002009A2C505F8F381513C749A03E009F9C0
:1007B8001B3C870A63CA06E047ED7BBF142F8717E7
:1007C80000CF1B40FE53A7A70060EE9962F41E728B
:1007D8008A1F0090EFFF9EBD82377400000066A953
:1007E80009000088162F9EDFB9E72B00E017DE14FA
:1007F800BFAF423CBF0F009EC7587C05783E00340F
:100808009759F4B9FFC95300DEB4067F7A857C276F
:1008180007604CD92826F858009717410618246015
:100828000D4F010000F2153F000080377440900121
:100838000609C6A32650BCE06381F1AF17F06775BF
:1008480088777280F14BC02CD6B967F2140080AF5C
:1008580000CF070040FCBE0AF1FC3E8058BFFFBD38
:10086800FB1D0000F3762563EE2F00C07A03E0F944
:100878000340BE78F6BDBFC17801D0417D83FA2719
:100888002B002834881F51002288010C00000330F7
:10089800000064007F2C009158601695007CE840A9
:1008A800BFC40B8095C44FEE457C09002F9E6F0F87
:1008B800E22B00500B4F50B700003D20FA17000004
:1008C800EF80310100724F907F00C0B883E860FC70
:1008D80080FEFD7E8893E45E5F502F1855135F926B
:1008E8003755632E9804A3701273A21F2299FCF047
:1008F8000CF0167E43E1CFC005FC0671F2E001263C
:10090800C049F21623093C007982C48B3F2E80F13E
:1009180003F5E0C14A004FC1867C889B80F80ADE57
:10092800825F92BB0746DF07C497889BC4DAF7DE6D
:10093800BD8278077120FF2B00C4BCF304E3057D5A
:10094800DF678418CF7BDF908DB97EF7BE80C00546
:10095800246002020380F101B0FE4F0274870598FB
:100968008BF500A3590DC409D5804EF101C6E40DDD
:1009780040130B308A17E02526208A27002B3800E1
:100988007F14C04306A0820530F007F86300041600
:10099800C044022402000002000040000000900849
:1009A800808904082C803F06C0C01FA08205E02172
:1009B8000360A300667000A27802E02526C0283EE6
:1009C800004D2E80317903E04DF10370C2B300462B
:1009D800D31360366F01AC374C00F3FFA4B900F0B5
:1009E800F52F0084FA07C04DE303C81BEA05C86663
:1009F8003E00B3E80078C906C88795002FF10318B0
:100A0800C50A803F3101167E003118095028808DB3
:100A18000B30F1006430000C24C044000426C000F0
:100A28000048000000013030000201B03001120916
:100A38008860003C7800062EC046013C8C043CC10E
:100A48000FE0121310C50AC01BE20788C94A408785
:100A58006C404DDE00F265161027D50BD8C3F800A0
:100A680042ED00F8FA0700E07FEF03000000000005
:100A7800000000104C80B91216E069FEFDFF3D80B1
:100A8800F19E6F6514F59D77F1FDF70C6A14C41C8F
:100A9800CC8494BFF33D0188EAFF7F12CF777E01B3
:100AA800EFFDAD0418013B00182F8B670288139ED9
:100AB8009EF400F852FCBC290E60151DBCE40BFC2A
:100AC800A8897A5801F68A17FC62EC007A2788FF11
:100AD8004E00C8E7790A0080F57DDF0500000000B8
:100AE80000000000000000000000000000000000FE
:100AF80000000030EEBDF7DE7B3FD4BDF7DE7BEFB4
:100B08000B00000000008C7BEFBDF7DE0F75EFBD1A
:100B1800F7DEFB02000000000000000000000000FB
:100B280000000000000000000000000000003CE79A
:100B38009C0F00E3DEFB0300002C2403978D258B1C
:100B480027BC448B49A7D84F4FC6BDF7DE7BEFBD06
:100B58000B0000207EF75FBAE4E7418C0731BAE466
:100B68000700CC7B4F00808F150030067F00F023F4
:100B78000B004C3E00F0040F0038540240140700EC
:100B88004CE201001F0B008CE403001F630080C5CA
:100B98000F00CC101300FCA900802C0E00F8C8022E
:100BA800000F0F00A8E40300874A0088E20F0056F0
:100BB8008809003E160018833F00F8910500261F9B
:100BC80000788209000E150010C50100937800C056
:100BD800C70200957C00E0CF180060F1030033C421
:100BE800040040BDFBDCFBFF260063FFE608F2794A
:100BF800CF04D47F0088B7417EC1F8CEBDFBC19A2F
:100C0800F006CF7E82F1BD688C223FC07C88C50F7C
:100C18001F80173F0A0F80918C30880460E1197893
:100C280000F0C7980800042E0C000C4402002001B4
:100C380000000000000000000000000000000000AC
:100C480000880400C0080C000CC4C204C0C11948C4
:100C58000024D220060085F2C30F4005C583190081
:100C6800177FF2213EC02A72E217D4FF09C6D7685F
:100C7800887F90DFB9773F580F187B0088AF01B99C
:100C88007F7304F97CE701009EEF00EA3BDF135015
:100C9800EFF93D01E3FDFF660063CFC45800A3FFF1
:100CA800FB05F59EBD1218BF1900000000000000EA
:100CB800000000000000000000000000000000002C
:100CC800000000000000000000000000000000001C
:100CD8000080E7DBE79EFD4D00ACF33D23C478DEE2
:100CE800B300F1EB0010FD015F116BDF7B7F85E73F
:100CF8008555E4BF07EAB73007F1E20C40175E6696
:100D0800F00C0017C51F1780428485050020327338
:100D18000000D8FFFF3F00086400002C1400800F7B
:100D28001F00C01CD4000064132F00C00966020015
:100D3800BEC16800403FE41F00B016710200984D24
:100D48007C0300A846170030BEA0270090FF602D46
:100D580000206E301B00887FF2BC00806F501F009F
:100D6800E02BC60F00F03E8C3F00A027790200A8B8
:100D780085FCDF7BEFBDF7DE7BEFBD6F0000000079
:100D88000000C4FCFEF79EFD1600EBBE4F1263FE8A
:100D9800FE05C4AF0340FE26F88A58FBDEF37BF05D
:100DA8003E5845EE1E447D8DC68B37016B908F27CC
:100DB8001805E0C3F64701F020C9CC3F0030F5FF25
:100DC800FF7F0058080080810200C4477C00407CF7
:100DD800C94C0018EB164F03AC7BEFDD1DA23F009A
:100DE80000F12E0000A2F700B0EEBDF7FF0EC6BF5F
:100DF8000040CEDDC49700803589060068140040A5
:100E08000C6200002CCCDFFFFF0F0040ACCC7C0054
:100E1800B0B01E6C006210E38F19005E941AC43FD4
:100E280000CF229A138CBB92A8EFC39BE43F89FEA4
:100E3800DF7B7E0F7AC1D80F00E3B780F8FE5D49EB
:100E48008CF9DB0500C0BEF7FE010058030000E482
:100E58000B0000BC010000660100806C0200006FFE
:100E68008806006016F30100104D3600005F700020
:100E78000098C51A0000A2C90600E017BC00003C93
:100E88000FB30000C48F6C00007E410700807A78A1
:100E98001E0000F1123F00003AE9000050939A004A
:100EA80000BCC40B00C09BC4FFDE7BEFBD7723EF03
:100EB800BD77140000000000E07FEFBDF7DE7BEF98
:100EC800BD7723EFBD7700000000000000000000A0
:100ED8000000000000000000000000E07FEFBDF708
:100EE800DE7BEFBDF7DE05090080000080C4BAF79D
:100EF800DE7BEFBDF7DE85850300901800008109D1
:100F080000709000000301003049000041000048D3
:100F1800E6E8DFFFDEFF370181DAAB927CDE3341A2
:100F28002200C4DBB020DFFFBDFF37B1260263CF4C
:100F380024E72E74F29C6FFD03882F890FF174004B
:100F480044E3010078824C0080070B0020910000E8
:100F5800000000ACFFFF3F0090C8C8CC02C083551A
:100F6800F8015041660EC603A0F1D0F80DC03788CD
:100F7800979AC4BF07F1EC071D781F62ED7BCF3746
:100F8800D0137C6F00C8DF02CCF33D8318F3FB1746
:100F98000090EBDBE7BE00E0D9FF7E460080FC7DD9
:100FA8000300C0D885D1FBDC1740FE83FCED350279
:100FB8000037A87F01009DD40F001093F800006649
:100FC800F00600C0474C00804C2A00000A9BF9FB41
:100FD800DFFBFF1EC0C533CF5B493EDF1E20F1BDDE
:100FE8000130FE051393B9EFFDBF417C8984DCEF26
:100FF80020E74EE205C41D401ED410D009301EFC67
:101008008009C0410100280C000002110000030CF7
:1010180024000678B0001044D8B800141E9EA01210
:10102800C01F1B9378017211136F520DC40956200B
:101038004EB07E45CE3D182F185F50BF7BFF6F9294
:101048000750FF0160EE0418FB370751EBFF063C21
:10105800F7DE7BEFBDF7DE7BEFBDF7DE7B1F000021
:10106800000000887AEEBDF7DE7BEFBDF7DE7B3748
:101078002A0000BC780100E4430D00001F0E008028
:1010880098E4030060063F00003E62020098C9042D
:1010980000E0233E000035A8040070F1020018C5E6
:1010A8001800005EBC0000F2211F00001F3E000077
:1010B800318905006006130080171F0080193C095C
:1010C80000E0C30B00A006630000B87801008C2282
:1010D8001F00002F3E0000F9101300C00F2B000066
:1010E80062E1070060064F02007871000050EF3E91
:1010F800F7EEEF0160ECDF1CC178BE3301F33F006F
:10110800C4FB827A83F19D7B7F85D9F0E2D94F5069
:10111800BF859954121FA08BF8D898002E8A810D8C
:10112800E0C1001680006001000C6C0085E2C30479
:1011380070F02727F101D6434EBC83673FC1F89A68
:10114800B8603F8CEFDCBB1FC64EE07B008C9DC0B7
:10115800D80F80F12F30FE83E777EEDD33E46F227E
:10116800FEC1F75530DE7FF016BFA01FC0F8F08A29
:101178002216802AF2A9A000F0C74E24001E245C83
:101188000080C001C0443C28006CFC479213402EEC
:10119800940F3D0079821A5611FB1D186B0FF2C38C
:1011A800AF30F7BD77779027E0D70120E61EC03A29
:1011B800DF33827CFABE01607EFF7BFFBF1500CC67
:1011C800F33E4956DF09F0BE0110EF07F4C4DCF71F
:1011D800EE89A7612CE27B07E3FD05ABD0781FA061
:1011E8005E3459E402588331140A800F9F8B0D40F6
:1011F800E1919800643000003C48000088C0040079
:10120800CC3F3600406101301E18492C0037107E53
:10121800780B883D609945FC7A30D61D02F806D6D1
:10122800BE7777E80749FC1F80FCAD4904E2DB7311
:1012380084ACF75F920718EF3EF7FF9B0C0C008019
:10124800C20600F88802003CC90400E48FF8008058
:101258003CC19B0060EE412D00B2FAFF06F5031871
:10126800F7FE7F2B89F5030088B91B0064ADEFBE3C
:101278000988DFFD972EF97910E3418C2EF989DF73
:10128800FD17000000000000000000207EF75FBA94
:10129800E4E7418C0731BAE487F8DD7FA14B7E781B
:1012A80010830731E8921FE277FF05000000000075
:1012B800000000000000008071EFFD0100006021C7
:1012C8003170B1B1C8E2095EA2894927B19F9E0079
:1012D8000088D50040F4ED00807CEF0A0018DF7F1D
:1012E8000600D46F3FA0FEC0B37F0531F7AF60FEA4
:1012F800BF01E33DEF40ACF326E2F9ED09C6ED404E
:10130800F6FD0A3003F5FD570080C809003388B997
:10131800F70460DC0E8CF7BC0320D6791331F76F25
:101328000298FF6F40BDA713E0D9BF8258FF5F0145
:10133800D46F3FA0FE008CEF3F030020DFBB02000C
:1013480020FA76BCF7DE7BEFBDF7DE7BEFBDF70555
:1013580000000000DE7BEFBDF7DE7BEFBDF7DEFBB4
:10136800020000000000000000000000DE7BEFBD6E
:10137800F7DE7BEFBDF7DEFB0200000000F12B007B
:1013880000EAB7270000E3FDAF0000907DDF0420EE
:10139800DE0131FFBF0230F75E01F5DB0F80D1E7D8
:1013A8002D18DF7F0580F9FBAF40F67D1340F6F975
:1013B8000A31FF0D80E7F75F890100660E0020D62D
:1013C800FFF70406407DB713B1FE0D62FD7F4F2085
:1013D800FB76427DB713C6F75F01EBFF7B029EDF0A
:1013E8007E80E88498FFAF0040F67D13008CF7BF3D
:1013F8000200D46F4F000018BDCFBDFF6F02C46F4D
:10140800AF11E4F39E078C5B00E25B8813E47BEE8C
:10141800DD852EDE64EC198CDFC465E206D041E57B
:10142800087200E2C19A980012F9DC7B7F00000084
:10143800901800208B780040A30200D6433400CCDB
:10144800C69B00982F9E0580F9E2F900F0BC783E13
:1014580000C40FCF07006F303E0050780180810232
:101468000081080010DDDD0080B5D6040000000012
:101478000000000098E73400906FC42A0030610033
:10148800800903006447AC02008078DEDFFFDEFBE2
:10149800FFBD4F000000E33BDFAC44D6FCCE370075
:1014A80000C8DF7E00C0B37F010098BB88E7DDE796
:1014B800DE7BF6FB04750B00F41BA2EF374720C652
:1014C800FCCE1BE29B00E845DD150030EF23BA0097
:1014D800ACC5FA050020BE25DE008C97D50000E8D3
:1014E8004736E086A70100C097668239C40F20DF1F
:1014F800FF3DFB1D801F3FF0A303D0FF9962CCFD89
:101508000B30D3829972027E0BA02EF088C2C707D7
:10151800788BDAF7EE87016C363998404DD66F3004
:10152800FE4CA0181415C04B35B804203D6C36F09D
:10153800240D04033045580CE05003480E2011C90F
:1015480003A2F8031601402611A050802001B0180C
:10155800C09F4840B200104C60F00002094002B041
:1015680048C04000920020000802604A0000603233
:1015780000990A168001384CC0C3364960B28051C0
:101588002CC0271E4904D864411E24D0E9258207AF
:101598003CF81E9E9B23C482B5E442F1073989EFCB
:1015A800DE2FF34CFA5BBD5B5CD814F0169037BBAA
:1015B800787A0D6327AC9005FCDE1151EF3FF9BD39
:1015C80023E4F3ED04513460EE737E13CC7DEEFF1B
:1015D8007B005EC604000000180F3D000000007E7E
:1015E800214E02000000E20BB91F00000040FD423E
:1015F8007CBF01003300009E2FA8BD572562CCEFA9
:10160800BC0B0040DD07A37FFF7BEFD9EF1336004B
:1016180000F1ED270010F3070000E3BBDFAA44D672
:10162800FA9D37000000CFBDF703000038A800007E
:1016380000A21013000098E00300003E9003000091
:101648002A297C0000F0C73B580000B018F923266F
:10165800000033F899F80300F027A6282A0100B201
:101668007882830F00E0C3C1133C00000FF1C02251
:101678000B00A864810F070038F8C0482A00208AA8
:101688001CC0472C0098C10778F001C00F0F208BB1
:10169800310018834A803F7E007CF80358C10460FB
:1016A800E1BDF7DE7BEFBD278807E00900000EC02B
:1016B8000100400590C5B8F7DE7BEFBDF7DEFB62A1
:1016C800020F7E0060E1033E3C00208A2CA86424BF
:1016D80000F0C71F0E7E0080851544E1010044110B
:1016E8008B158C040038F8F8F0030050C1C831F0AD
:1016F80000008807DFB8F7DE7BEFBDF79EFFB7066F
:101708000000914FEFDF000000F52F807BEFBDF761
:10171800DEDD417C030030D61DC40500101723010F
:10172800008C810200E0C1010000020080810000FD
:1017380060E10F006026F100003C8D0600A2BE2F7C
:10174800581370EFBDF7DEF37B88B70100602E00F9
:1017580000B0EE0370EFBDF7DE7B7E0FF12D004089
:10176800D4F7055D00009E890600E0C54800009199
:101778005800004C2400000000808904009089056E
:1017880000A0311200A01FBC00403E7BE179807BA5
:10179800EFBDF7DEFF37F07C0000C8F70300C83163
:1017A8007FFF090031BF7DEEFD7F2B00407CF77D78
:1017B80046904F9F2F0078EE13003CB700E6176461
:1017C800EF7BEFBF93F80A785ECCFF1AC8F57F88E5
:1017D8002F217E582F80AF88173AA806C08B1AC4CD
:1017E800420340167ECCA00600F8E3616303000FB5
:1017F800323C28006054558D0C0C00C0EFF7FBE517
:1018080044000080C000000000000000000000004C
:101818000000000000000000040600009808000016
:101828009081010078DFF74D0F0A00C839E71C36B0
:10183800360050C830510900FE7888072F0064E14F
:101848004307B500F0E249E40FBD007C45FCC0B396
:10185800D07B2631D6FF21BE00BA83F1FEEF3DBB17
:1018680093FC17C0FA170031F70060FC765712E3B3
:1018780079EF1B60DC7BEFBDF7DEFBFF75010040F5
:10188800D6FAFD17000090FD1F00DC7BEFBDFFDFDF
:101898000CF23F010059EF7D88F70100105FE397D4
:1018A8000000AC49BC000078931A0000F8F0020070
:1018B80060A202008018C4030080071B000007090B
:1018C8000080440000002600000000000000000026
:1018D800000060020020110000384800003CF803B6
:1018E8000090832800003E54000088890300C01738
:1018F800540100F88A780100F2F7E09700209FEF82
:101908005FC4FB00DC7BEFBDFFEF41FE270000F268
:10191800FD0F00807C7AFF2760DC7BEFBDF7DE7B64
:10192800EFBDF7DE7BFF0000000000807BEFBDF716
:10193800DE7BEFBDF7FE01000000000000000000A4
:10194800000000000000000000000000000000008F
:1019580000F7DE7BEFBDF7DE7B7F000000000000B4
:10196800EEBDF7DE7BEFBDF7FE00000000000000D3
:10197800000000000000000000000000000000005F
:10198800000000000000807BEFBDF7DE7BEFBDF7B5
:101998005E0000000000C6BDF7DE7BEFBDF7DE7B12
:1019A800EFBD77010000000000EEBDF7DE7BEFBD64
:1019B800F7DEBB000000000000000000000000008F
:1019C8000000000000000000000000000000F7DE3A
:1019D8007BEFBDF7DE7B1F000000000000F7DE7B19
:1019E800EFBDF7DE7B1F00000000000000000000D4
:1019F80000000000000000000000000000000000DF
:101A08000000000000000000000000805CDFFFDE36
:101A1800FBFFAD0100C6EFDF4F22ABF76F00B0FE52
:101A28000580DA0BA03BC8FEDF7BFF3DD00DCC85DF
:101A3800F55F895C7B623D908D6E00EF444307B58E
:101A480000F0063989420380171F2B18030014463B
:101A5800D8F801006364662A0C00C0FEFFFF230269
:101A680013000012120000200000C0C20000000194
:101A7800000000008C7BEFBDF7DE7BEF1300000059
:101A880016060000800018F7DE7BEF4D484800007E
:101A980088C4020000850D0000FE580000A092587E
:101AA8000000E087370100600EE20400009C60EC53
:101AB80001207F8989FC07B9BF2790CFBB0BEF8036
:101AC800B1079EEFDC7BFFDF0CE29B40EE37011095
:101AD800EB3E00E6FFB72A89ACF53B1D18F7DE0B95
:101AE8000070EFBD030000000000000000000000CF
:101AF80000000000000000000000000000000000DE
:101B0800000000000000000000000000000000705D
:101B1800EFBDF7DE7BEFBDF7DE0B00000000000035
:101B280000DC7BEFBDF7DE7BEFBDF70200000000B5
:101B3800000000000000000000000000000000009D
:101B4800000000000000000000000000000000008D
:101B5800000000000000000000B8F7DE01000000EF
:101B6800000000000000000000000000000000006D
:101B78000080FFBDF7010000000000000000000029
:101B8800000000000000000000000000000000004D
:101B9800000000000000000000000000000000003D
:101BA80000000000000000000000000030C618011E
:101BB80000D07BEF050088C0014062FE51003C88E0
:101BC8002C8C01E0C5320A2701DF207EBC41EE954E
:101BD800C4B31FBC49FE83E8FFBDE71BE8056317D4
:101BE80000E3B780FCEDAE24C6FCED8271EFBD00CA
:101BF800A0CEBDF7070080F105E30300204F90FF5A
:101C080000001037891B0000FC93F8270000BF81F3
:101C1800DF0000E02BBC0F0000FD604D0000D6C2C5
:101C2800D300003C8DFA0000A81FC60F0080F10504
:101C3800F90700204F10370000C44DE29F0000FC58
:101C480013630000F01B901F0000053C0B00007A96
:101C5800E01D0000AC7582380100B05AFE901F00EC
:101C680060359E855A0040832EBC030000BE204E7E
:101C78000000203EE4070000D5A8050000ABD00511
:101C880000005FE20B0000C409E2030080F1A21A21
:101C98000000D683F50000C02FF14B0000C409E214
:101CA80018F7DE0B00000000000000000000000034
:101CB800000000000000000000000000000000001C
:101CC800000000000000000000000000000000000C
:101CD80000000000000000000000000000000000FC
:101CE800000000000000000000000000000000E00C
:101CF800DE7BEFBDF7DE7BEFBD0100000000C0B862
:101D0800F7DEFB000020EEBDF72EE0000060024089
:101D18002500001F00F800005402800700C00100E1
:101D2800F20100C403808103009818009554020052
:101D38001F7E00F1E10300955402989800E0E0004E
:101D4800100FF100201EF201301C1C004C3C064014
:101D5800A8A412800FAF00C0870F40254F0080193C
:101D68004C0007070088221E403C640160E2E00046
:101D7800263E1C00A8A412F8880900E0C3072AA977
:101D88000080013398E0E000808028E2413C640153
:101D980000E0C5C1C40700006350C9474C0000F00B
:101DA800E1534905000058C174F0020000B188F5FC
:101DB80030060000E043E30300001803C4020000FB
:101DC800F0811500000066C007000080893100001E
:101DD80000F0C307003CF7DE330000F7DE3B202E9F
:101DE800000080B1000000BC09000010070000C01E
:101DF80058000000DE0400804CE20500008D9A00C7
:101E080000F03CE80000805F101F0000C40FF500E0
:101E180000C053F80500007C41FC0000201ACF03E5
:101E28000000B3D00100006F903F0000C8174F01B9
:101E380000C01A780100C009F20500807C31070053
:101E480000AC810300006E900D000063620E00007C
:101E5800E8242E000038180000602C0000009D00C7
:101E680000005E00000035010000BC090000E0052C
:101E78000031BF7DEED9DF0C0020DEFB3E23C478A5
:101E8800DEFB06006ACF0010731780FA92EC7DEF34
:101E9800DD9DE45780F105CF7F0D8CF57F886F00BD
:101EA80027981F806F1207AC64BC007807B9E0451B
:101EB8000380C687271805002AC9E2E20700F8F060
:101EC800A75000808112810100789012090010301B
:101ED80026000048800900002600000000000000DD
:101EE800000000980000604E0000901048008080BC
:101EF800918101007890140A0030505CFC00003F8A
:101F08006C9E601400A8413E78F10280C6072BC978
:101F18000F003DC8054EF07C00DE451C607CC17397
:101F2800D6C058FF497C03505F12BDEFBDBB93F884
:101F38000A40ED190062DE0240BCF77D4688F1BC1C
:101F4800F70D60DD7BEFBDF7DE7BEFF97F2B01003E
:101F580010F9F4FF97000040ED09A87BEFBDF7DE0C
:101F6800BB5710EF030030FA0EFC120040FC9368D8
:101F78000000A2510100C013C4030080070900003B
:101F88000800000000004C24000023510000342AFF
:101F980000007C850B0018EBFF6016A87BEFBDF7EF
:101FA800DEBB3B315F000018BF170020F2E9BD0B14
:101FB800A0EEBDF7DE7BCFFF5B0300000000000052
:101FC8000000000000000000000000000000000009
:101FD800000000000000000000000000000000C831
:101FE800F5FDEF3DFB7D0000F9FDFB4962CCEF2CD0
:101FF8000078F60340F44E00EB0BC6FBBFF7EC1578
:102008008C3D004F63ED99C4E85BC409103F74032D
:10201800C4AFC80FFC826701E00BAA900FD1001073
:102028002F2E1E5402801554F2C30500141E315081
:1020380000808DBF07190080C492980000132910F2
:10204800000003E26000000400000000000000003F
:10205800000070300000020402006040242600C026
:10206800447A900100484C912800C0C6E6C105009A
:10207800141E3E3C09006630927CF00240345EF843
:1020880005B500F005F540FCD00D10BF225EE069F3
:10209800ACBD12A36F11FF04AC2F18FDBFF7EE15EE
:1020A800E47F0078F60300E301407EA79F24C6136F
:1020B800C4FB0240ACEF7FEFD9DF17983B0100501B
:1020C8007B60EC020040EE89780100C0FB8671015C
:1020D8000080F9AF7F8A7BEFBDF7DE7BEFFDFFBAAB
:1020E800000040D6FAFD27000020DF1F00E7DE7B56
:1020F800EFBDFF1EA81F00805C7BA1160000FAC17F
:102108000700008D2C0000E4C000008007070000D5
:1021180000000000000078700000900305008017A0
:10212800630000F0152E0040AEFF8377009C7BEF24
:10213800BDF7FE3B8977020080674F0000505F02C1
:10214800E0DC7BEFBDFFA01E0000E4C40B00006FC5
:1021580030260000E2450300C00AA20100A03103B6
:1021680000003389060080C64C00003C032F0000A5
:1021780034AA00005085060080C6780000301E345E
:1021880040CC6F9F7BFFBF350020DEFB3E23C8EAB3
:10219800BD0780B16700307603C63F89B5EFBDFF44
:1021A800AFB03EE004757B209FDF173C1356925F6B
:1021B800003C3F74E0872F00780631315000F0E191
:1021C800474000C08341C00480ACAA0A06FE001044
:1021D800BFDFEF177C5805008039886F0200E024C4
:1021E800F1EE070040DE81F1FDDF0100C8FD267237
:1021F800EEF3160030FF6F41CCDF7F0200F3F7EFFC
:102208000AE4FB7F00805CBFFB15F27B0100E2F96A
:10221800FD1FCC170080FC5ECC0200C09CB8E2F722
:10222800FBFD02007C7844555502804484810200FD
:1022380003F8E107001622CC603400BC28E287F5D9
:1022480002F00DBC781AF3F40862ACFF8335607DA8
:1022580041AC7DEE3DBB13DDC0735700A0F602888C
:102268003EDF1C418CA7FFBF01FF7BEFBDF7DE7B84
:10227800EFBDF7DE7BEFBDF7FE010000000000F8C0
:10228800DF7BEFBDF7DE89BEF7DE7BEFBD7F0000A9
:102298000000000000000000000000000000000036
:1022A8000000000000000000000000000000000026
:1022B8000000000000000000000000000000000016
:1022C8000000000000000000000000000000000006
:1022D80000000000000000000000000000000000F6
:1022E8000000000000B8F7DE000071EFBD0100003B
:1022F80000000000000000000000000000000000D6
:1023080000000000000000000000000000000000C5
:1023180000000000000000000000000000000000B5
:10232800000000000000000000000000101800007D
:10233800484C00908878B00140E1B1F100801FFE60
:102348009E241B006B909317AB01AC46A316D69E38
:10235800899CBBB11EE80EC6FBBFF7FEDF417403C4
:10236800EB5F00A8FF0218BF7F3F498CA7FFBF01A2
:102378009C7B6F0300E87BEF090B0F00800715FEBD
:10238800C80100188943253E00C00F59F850008045
:10239800070F3CC8010046E20759F800C08731C062
:1023A8001F0B002CFC80154401A082984014FE00ED
:1023B800F8A30270B000B070012A8907C013C403E3
:1023C800E0C10570B100F8A10210850F80318802C4
:1023D800549003003F1CC0C10700337802446102D7
:1023E800403CC4020B1500E0E00FFE3800C0135457
:1023F800208B7800000B0B0F1600C0870F3F7C0066
:1024080000231929073900007C783CF8000078F08F
:10241800F3C303004016E319540200E0E0873F00CD
:10242800003C41100B00002C50010000FEE00000B1
:102438000095C80200003C780060DD7B3F00F8EEA4
:10244800BD0980E7DEBB071600140A001B55C80447
:10245800600436001EFC0D2C000A0A0003A5F007D4
:10246800E007310014326C148018A0000C140F0619
:102478008042F203B0B1898102B8C4C708800785D9
:10248800C200289E42014690813F3660047B041BAF
:10249800F0A0A0F0000AA528C0C6854862009B1CD1
:1024A800363980850285074451140A4412092E36AC
:1024B800286C32D9A0504061814D3C7878C01F1BF0
:1024C800C82403160F6CA2A050804261041B2AD8AE
:1024D8009044022EFE283CE0A1308202281436994E
:1024E800603382C21F208341140FF060F147012836
:1024F80094C20632D9143100FC316CA20045C9E0FF
:1025080001A0F05714C09F180B1B8011CC4C36400B
:10251800054FA200F0900B0BC0C3FE1303009B38BD
:102528008C00B0599307000AC50F8022930D002331
:1025380040013092600080076200A04001800D0BCE
:1025480000360C0060C006808202002A5000108508
:102558000DC873EFFD0100EBDE7B674ED40300F975
:10256800624C9DF80500DE202E0EA201780A7360E9
:102578004CCC01108D6CD08903D0891788462E6009
:102588004CCC023C0FDE0417D9007E41BCB0063AA1
:102598000044A326F9A21E00CC428737880F00BC4E
:1025A80041FC9E420700C817CF0F630200D64010B7
:1025B8001700C005E600003026640300206104000F
:1025C80000B3207E0000A281E70100F80591E80031
:1025D800009E07EF41360088C6586361160074E212
:1025E800D28917003531075E6403F0221BEAC11C4B
:1025F800009DE800BF202E604C3C0F108DB1801B61
:10260800C40F6016DE8435D001A08378912FC604EC
:10261800604CD4E40DE20240273A66610E00F022D5
:102628007ECFBDF74E00C0BCF7DEE719F801007E8B
:10263800A8472327005889A60A3F00F0E21968E452
:1026480002C00AA2614CBC00C48B99E017C402F016
:1026580006F10239F1062026DE0074102FA0835CF3
:10266800001A33402E340073102FF805E301C08B95
:1026780099C8850680A7881F3AA802008D95F2C1DF
:102688000B008C87688D9900800E9EF9100D0090C4
:102698000B2FDE0000D001620100102F68000058E7
:1026A8008931010040E10100000000000000000045
:1026B8000000000000000000000000000000000012
:1026C80000000000000000000000000000FF7BEF99
:1026D800BDF7DE7BEFBDF7DE7BEFBD0B0000000032
:1026E8000040F0BFF7DE7BEFBDF7DE7BEF4DE40483
:1026F80000A013070080B1B006000007D9000074DD
:10270800E200003016D60000E0201B00804E1C00BE
:1027180000C6C21A00001C640300D0890300C05818
:1027280058030080836C00003A710000180B6B009E
:102738000070900D004027710000180B73000070A6
:10274800301A00804EE202003016E60000E06034E5
:1027580000006F121700809A9803008017A30100E9
:102768007893B80000C444EC7BEFBDF7DE7BEFBD87
:10277800F7DE3B000000000000F8DD7BEFBD7701CD
:102788000000FBDEBB0000000000000000000000AD
:102798000000000000000000000000000000000031
:1027A800000000000000000000000000000000EC35
:1027B8007BEF0200C0FFDE3F00E0210B00F8700055
:1027C800802C2A00803F31018019FC00008B3100E9
:1027D800800F1F0030920500F888070098380040E5
:1027E800149500C0C103003CC10700986401003F74
:1027F8001C00600C2A00808F5800C00A3E00208A06
:102808009100C0C1070054F200003EF201001E5CB6
:1028180000208B0A00E010130078821F0060310648
:1028280000F0E10300C66001007EC40300CCE000B4
:102838000051540200170F00F0249FDFBDF7DE7B24
:10284800170000BF7BEF040000000000000000003C
:102858000000000000000000000000000000000070
:102868000000000000000000000000000000000060
:10287800F0BBF74E000000C87B4F00C0474C007803
:10288800F001E049640170C001308A4105C08F3809
:102898002126C06465F10166F03964011F63A8E46C
:1028A8008231F8F051091FB130F121162B100F13A6
:1028B80033F8C0211E3E72804A8E4A3EC0438DFFC7
:1028C800BDF7DE7BEFBDF7DE7BEFBD7700000000D4
:1028D8000050E7DEDB505FB00AAAF125CC973860DC
:1028E80036E3056B650910EBF7BFF7FC7A00E8DB08
:1028F8009544ADFD05C8BD02C0B3037107F9FEEFED
:10290800FDAF203F7432F64CB2BFA04A2C9C006A3F
:10291800E1EF092A01FE78D439E703F0208988001D
:1029280000010000C058BFFFB9F7DE03F0FC77577D
:1029380006007C5F0200BC0F46EF73EFBD078C8971
:10294800DE6B04003FCC05000CFC0100130BC0003B
:10295800130F80061BBF007C0F5849EE998C751E1B
:10296800C009F2FDDFBB3B2C48E33F00F2EB81C519
:10297800D8DF33C8E7FD3F1EDC7BEF050000000011
:10298800000000000000000000000000000000003F
:1029980000000000008058BFFFBDFB2D00CCDB9578
:1029A8008CF9FB0540BF01503B01CBF8CEBD7B063F
:1029B8007900E67E82F17EC15840BD807AF1022F0F
:1029C8008095448104E0C31F0060E0010078900016
:1029D80000810000000100000000200000890000C4
:1029E800984800808D0724000FFEE005B0922C5017
:1029F8001FA05EFC4078F60CC6FB0B6A82D1C67B32
:102A0800EEDD13E303E6FA02E0F907C073BA923188
:102A1800F717008CFE9D7BFFDF0340FCF6AA209F82
:102A2800EFFF00C62D00F93518FF60BCE7DEFD603A
:102A38002DB8C1B36730BE176F3207E303CC45FC2E
:102A4800F8A10174B08C240B8022F24101E0CE3948
:102A58005D5C003CEFFB66620000000000000010B7
:102A68000000303000002E2E00C0830700EFBD7735
:102A78008C640C008A187EB8009EA498C9F800F5EA
:102A8800235E9CE0D94F30DE5FF00E8C7F30BE7342
:102A9800EF9EE805C62E00632F40FEF6AA60CCDF45
:102AA8001E000010F7DE0B00000000000000000010
:102AB800000000000000000000000000000080ECA2
:102AC8007DEEF9AD00C0FB5F2344F55D007E132069
:102AD800FA037C8567DF7BBEA180E7C1F70DE2D9E9
:102AE8000BF0623D807EC018440368F0C30260802A
:102AF800C21F002031010002090008000000000088
:102B0800010000020100F0E0010018D800003F3C7D
:102B1800000C3006B90034D0E807D00F5013DF3B63
:102B280088672F80B730F7BDE71B9E00FC1640F47E
:102B38003700FABF4688EABB04805CBF73CF7E0BC0
:102B480000EFEE0A31E66F0F40FE67008C7F81B818
:102B5800C9F8CEBDBF417C095FF2EC27A8FD102F54
:102B68009E627C802FA9E24503F8E16F0C4601586C
:102B780028850220928C3FFE0098C889EFDE7BEF03
:102B8800BDF7DE5B10000000000060DF7BEFBDF7E3
:102B9800DE7BEFBD774C2C0080C40000D8F8010024
:102BA80054300A0089987803C0D88D37C97F029EAF
:102BB8007FAC1F7182B17B10F57D211AE31FC4DA47
:102BC800F79EDF437C03C67D00A85D407CFFAE24F2
:102BD8006BED5F02E0F9FEF7FE3F60ECEF497282B1
:102BE800FC0F608137C8EFDCFBC128E23E41406141
:102BF8002580830B406200000000C0BAF716BE7B38
:102C0800EF5D0000008075EF2D7CF7DEBB00000053
:102C180000000000000000000000000000000000AC
:102C2800000000000000000000000000000000009C
:102C3800000000C8DEE79EDF4ADE7B6F40FFD70852
:102C480051BD5B027E0B20D6B780AFF0EC7BCF572F
:102C58009E019E07EF3788E7B7002FE604F4046368
:102C6800100DE005850A00C01F1B0060E101004847
:102C78000400000C0000000010000090480080894B
:102C88000700E08F0D00F0A00240802CA20134D094
:102C98009813D0131813EF3788E7B700DEC2B3EFE5
:102CA8003D5F2980DF0A40AC1F80DE6B84A8DE0D03
:102CB8000264EF73CF6FA5000080C48002C00F0FBD
:102CC800DE6F0088898F35E3FF00E21FD46084F847
:102CD8007E4F90EB0EE2457D417DE7DE7F07F14FA9
:102CE800A8FD00F0DC01E477BA92ACFE7F01FF7B1F
:102CF800EF000000000000000000000000000000DD
:102D080000000000000000000018EF3EF7FC56002D
:102D1800C4B7E708517D0B78F603105F81CE58FFE2
:102D28007BFF6F100D2277273977300AE226900B48
:102D38001B3A01FE18F0005898000000000000003F
:102D4800000000000000000000000000000000007B
:102D5800000000000000000000000000000000F972
:102D6800BB3BBB8C77612ECC2EE3CDDFDD09005851
:102D7800F7DE050000000000000000000000000071
:102D88000030FEE7034EC6B320127F88C41FBCE99B
:102D980059A0FEF70300000080F7DEFB00000000EA
:102DA800000000000000000000000000000000001B
:102DB800000000000000000000000000001808B03B
:102DC80030115F9239EE3D0F7E00738A11F2F9BD22
:102DD800FCEFBD0100000000000000000000000042
:102DE80000000000000000000000000000F0DD7B93
:102DF800CF0000DF437C0300FAC1AF00A017DE0755
:102E080000E6C29A00305FCC06807AF1BC00501F01
:102E1800EA0380F105F503803CC1F800C04DAC0021
:102E280000036A0100023D0040FC0B270010FFF17F
:102E380006F901E01BF2875A003C7816DE0100F41F
:102E4800204E000027C81F00903F3C130078167AD8
:102E580000003D880B0038C1780180FC61CEF7DEA8
:102E6800BB0000000000000000000000000000009F
:102E7800000000000040DC7B7FC4FAFDEFFD7F0509
:102E8800D4BBEF3DBF9500CCDB95E4F3FB05F9FB24
:102E9800CD4154EF05F0BD01507F631740F402EABD
:102EA80089B9EFBDBFC278FF11EB7FEFF906DE04E9
:102EB800E2FF0ED46F6246FC3B89670FE2037A009B
:102EC800DE80DF00341E901340211F804202002460
:102ED8000A804400002E0E00900000000000000050
:102EE80000000000000000000000000000000000DA
:102EF80000000000000000000000000000000000CA
:102F080000000000000000000000000000000000B9
:102F180000000000000000000000E07FEFC578F727
:102F2800B9E7B70210F1ED394254DF029EFD00C443
:102F380037C097D1FF7BFF6F1017C4D82BC9B9834F
:102F4800511027815CD8D009B031E00130B10000C0
:102F58000800000000000000000000000000000061
:102F68000000000000000000000000000000000059
:102F78000000000000C4FAFDEFFDFF5600E0BD5D53
:102F88004956DF1720FF330062EE047193E8FFBD56
:102F9800FF0EC60DF892715792EB0EF2C353C43F61
:102FA80080F807F5F0A203201AAF1CC4046026239A
:102FB8001F140014EA8F3F005CDC400240221726F1
:102FC800002C0000001616002C48240024F2E00211
:102FD800C0C62D1400149E31C80780198CE145071E
:102FE80040FCF0F214F90F20FE493DF89271579217
:102FF800EB0EF283B849F4FFDE7F077903E47F061E
:1030080040CC7F02BCB72BC9EAFB82B8F77EC4FA72
:103018009D7BF63B008475BB428CB9BF00ACAF0307
:10302800E0F907301EF53BF7FE0AE303787F15D475
:10303800AF5113E80958133F6001E8200700201634
:103048007E00001B0300606102000C2400400000A9
:10305800000000080000482400C0830900B0B10146
:10306800005128B000743006E80958132FE0FD2AF3
:10307800A85FA31EA03CBF73EFAF303EC06F05C072
:10308800B303A0775730E6FE0090EB77EEDDEF0054
:103098000000000000000000000000000000000028
:1030A8000000000000C0FCFDEFDD6F31EFBD0F3CFC
:1030B800E7AD64CCDF2F03D05F00D4DEC0B390EF60
:1030C800FFDEBD220AC40FB567327A27F006F9057C
:1030D8009037C0835F00E4032389090078F000007B
:1030E8001C0C0080C00100480C0000000090180073
:1030F8000081000038F80300140A002093780000CB
:103108003E74008C07AC243FC03801BCA8FF4C4675
:10311800FF13502FF2FDDFBB574402E61700B52717
:10312800C073DE0AC6FCFD1200F377EEDD6F010006
:103138000000000000000000000000000000000087
:1031480000000000EEBD7FC6F7BF6722F57E52047F
:10315800F4026099FBDEBBC0F70E80F500F0022098
:103168000000000000000000000000000000000057
:10317800000000000000000000A0DE7DEEDDDF039F
:1031880030F66F8E603CDF7940FD0780F81AF9054C
:10319800F5BBF7FE0A6BD1C1FC15EAF7E00D0F1A73
:1031A800F025B11219000FEEC000F07DDFF74512CF
:1031B8000B209FE7197EE85F01C09CA8DFF9AD02EC
:1031C800F07E89A8FE9DAF00CFFF7B02E2F9ED01FA
:1031D80078BEB3FB098CFF0430D677DE243A016051
:1031E800FE07F1FBFD7EBF00F0E29955950016A29F
:1031F800F0025898BFE0998078B1F3C5FBAB20E79F
:103208001EE4B216EA77EEFDBF491EF42F0178F6E8
:1032180080FAFFE608B2FAFF05F0DC7B7F000000C9
:1032280000000000000078EFBD1FEADE7B0300000D
:1032380000DE7BEF87BAF7DE000000000000000028
:103248000000000000000000000000000000000076
:1032580000080030F100C8243A04F0619D7B06584C
:1032680005007EEF085971EFBD0160DC7B7F00002F
:103278000000000000000000000000000000000046
:103288000000000000000000000000000000002412
:103298000000300080890960C1C01F40C30F2B01A6
:1032A800DF803188FB04B9FE0F7083FCCEBDFF4E72
:1032B8000F18FF0488F7078CFF5B49D67B2770EE51
:1032C800BD09C0B8F7FE597800F8E1E38F0DC08357
:1032D800874A2A004632120F1640E1073FFC017E5A
:1032E80098300615400E2AC00F0B787080077FE0D3
:1032F8004714904505E4A002F04741E100ACE0C066
:103308009F2880289E208A05C0258AC207C0131CD2
:103318000E3900B078C2C303001F514FF001C048F6
:10332800EE652400F8A8E207003C44F0000039A04C
:103338001200F0833F00C0442C0080282A00F6BD0C
:103348007700D8F7FE00D4BDF7FBA10072F000D8D3
:10335800D8853FC08378000A358202D8B001062399
:10336800153180285880427151408118C0C68FC2DB
:10337800062E33F901450CA2788062170F3028D841
:10338800444185783E32A1B0A1B0E1CF63040F6C0F
:103398002C184141F167F1836204588C60248BCD6D
:1033A800080C7EC046F1A3822758140A28FC293647
:1033B800147F363180284A0E1EB83C1405B019F126
:1033C80030122AC46370010AB529100FBB500023BC
:1033D80039C50FF8B336230014450E6011931F004A
:1033E8001B14208AA00028F007D810038028440165
:1033F8003CB00060A300E4C00680C205E08702F488
:10340800BDF72480FFBDF7470FE205E8243EDCA0A6
:103418001E604C74604C34D0414DD0492E788A7867
:1034280001076FA2F126602CA2E9642C009D3C35AF
:10343800267100F0A23B7813003519C55800E04DFD
:10344800880B0068980300909000807CE1790080E8
:1034580037C02F00601663113F0064E376F23C002A
:10346800BCC11C1A1D00B3C897A7C81F201B0D6F2D
:10347800F014F006F540BE780366112FB092FC21D7
:103488001A6F025E3CC517E402A8076FAC7BEF1FFA
:1034980000FF7BEF9CC8016024B1A2F001F8A1C233
:1034A8004101285C9E20072007F1A0F0011E2C385E
:1034B80028C00F7FA8240BC4200B3CF88385027E0C
:1034C80058E08F0F188328C4430EC00F7F54F000B4
:1034D8004C2C5C7C005144518C0470F057C10F8017
:1034E8002758FE7800504415950038E8E40F0095F9
:1034F8000C620180073C01007EE0000063201E0092
:10350800C00F050030700000FE4401002C1600407A
:10351800051F00C0250700E0297E00C0E81F6302E0
:10352800E0B977AF10170080FC0F00881146EF0153
:1035380000FEF7DE7BEFBDF7DE7BEFBD3700000056
:103548000080E07FEFBDF7DE7BEFFDC11B00102F91
:103558006A01802F890F00CCC21700908D5900E0B6
:1035680004E30500EF200E00A8894E00880F3501FE
:10357800C017E4070056E10D00182F5601801B8C78
:103588000600EF200E0078263A01207E782600F803
:1035980082FC018055380100F1C2BEF7DE7BEFBD29
:1035A800F7DEBF000000000000C8DE00BC7B8D0213
:1035B800E47F8608206E32CF0374325F404EE20506
:1035C8007830016C6C000F1E0081000000000000C4
:1035D8000000000000804402785000F9E20362DE37
:1035E800E019E077DEA43E00D40F00EA03FCCE9B8E
:1035F8003C2F20E60DE600C8171F80C2036060005C
:1036080000000000000000000000008100F0E00160
:10361800B0B1013C980072122F804EE60B10773043
:10362800CF03C83D43048077AF5171EF0D00000010
:103638000000000000000000000000000000000082
:1036480000000000762700CF58BB018C106B076084
:10365800DE87F10788EF61BC007EC10A8058C40488
:10366800B0F107303101241200040000000000000E
:10367800000000200201A0B0001CFC02A01E723F46
:1036880001F81EF23B2FE09B00F04E00BC93FCCEED
:103698000B6A92FB09E0E0170085028840020000EF
:1036A8000000000000000010001209606202D8F853
:1036B80003C42226C02F9801C4F7301A98F761FC7A
:1036C8000123C4DA0178C6DA0D00D1FBDCFF3B0028
:1036D800C8B52675D70839F72F009EEE9FFA025015
:1036E8007B00362BBE10DFBDBBC8FF04A3B833F880
:1036F8001EC6EF0DF17E83F9279FCD2830BFE0D994
:10370800F7BE218EC903A85B80FC0F67EF1F40FC42
:103718007E4F8AD1FF41EEFBCB77A89E5813EB1D55
:10372800AA73DF5F0200F27DDF8A39E700002C0808
:103738000000C0010080010100C080000020FEFFE1
:10374800FF0F0040664E000000000000000000303F
:10375800DE3FF2FF0E00F1ED3920E7FE02C8FD0062
:10376800F0FC03E226D1FF7BFF1D8C3FFC927157D2
:10377800926B2763311EE20490072F1FDE04184561
:10378800948507803FC6083201A8EEAE8905805CA3
:103798006B8DC40000000000000020000060600085
:1037A800004C4C0080118C0060FC7EBF476102F029
:1037B800AB2A5EBC01109328A3887F00F10F66F046
:1037C80025E3AE24D71D8C469C20FA7FEFBF83F1FA
:1037D80007631700730790BFDF0CC8F57F01A8F7D0
:1037E80022FF9D000000000000000000000000E231
:1037F8009CB30100E4FAFDEFFDFF560080777725C2
:10380800597D1B80DC330062FD009C41F4B9773F91
:10381800A817D083D82B18DFC24C1013BF047AE046
:10382800072AC807E0C303FE28008501060E80ECBE
:10383800EE060080B5D602000000810B00808100F2
:1038480000000000000000C4BD7762DE7BEFBD3FD2
:1038580000000000000080B8F7BEA87BEFBDF707A6
:1038680000031300000000000000008101008085B3
:103878000000C04402006020000070F1000060E118
:103888000F004007A30000EE5D18F7DE7BEFBDF7E1
:10389800DE7BEFFD010000000000900500005110E4
:1038A800F71B90EBF7BFF7FFEB01F1FF8AF867FC16
:1038B80087FCFE5D49D6DABF21FE23BE3207F1EF51
:1038C800FD0050FBFD0FE25A0F6205E3FDDF7BBEF2
:1038D800C21C181FDF03E2DD3389E7F74B9027F09E
:1038E80015E23F01EA0EC44D30F10D00F20402ACBE
:1038F800641500E48F68F0120D003C834A543001CF
:10390800003E3CD8F801002C6C0C0C0080183C9848
:103918002400009308920900C00000000040320112
:103928000018C024010098443030000062F060E3C1
:10393800030058D8A8600500E0C3032FD100C01CBD
:103948003C092B990500D9683006BE0140DEC00746
:10395800E31F88FF04A89BB016F90F10EF9E493C9F
:10396800BF5F023DADC0F306E3FDDF7BBEC27A61F7
:103978007B5E9E6FEE0780B17BBED4C7ECE723BFAA
:103988007F5792B5F61ECCB77EB03E90EBF7BFF7E7
:10399800FFEB01E60F71EEBD3F00C0EFDE7B221AA0
:1039A8005500A00A1DE6400380C698688C0700737E
:1039B800A0A10A0D801F9E026F900BC04AA2819C95
:1039C8007801E2C54CC01B4403DE201B201A33409B
:1039D8004EFC00988368F00BC60440632572E2022F
:1039E800403D44E3C533004007CF308A68002027B4
:1039F800DAC59B00800EEA1DE40200D0986800B882
:103A0800F7DE7B5FC077EFBDF70200000000000023
:103A1800C0BDF7DE7B6FA1EFBDF7DE7B01000000C4
:103A2800000000E0DE7BEFBDB7D0F7DE7BEFBD0026
:103A380000000000000070EFBDF7DE5BE87BEFBD23
:103A4800F75E000000000000000000000000000019
:103A5800000000000000F0BBF73E0000000000007E
:103A680000000000BF7BEF0300F8DD7B1F000000B3
:103A78000000000000000020E6B7CFBD67BF4F0080
:103A880010EF7D9F11C498DF6D80B16700106B2720
:103A980018FF24D63EF79EAF306EC00DC6ED11C498
:103AA800F37B836CD420FE01301B33D99801C01CF2
:103AB8007848FC01E0C31F1800F06092B80090DD60
:103AC800FDB1B1060062AD35A924FE0B0080378830
:103AD800FEAF0400D417C8FEEF1E006000C6DAE788
:103AE8002D00BF0EF12488F9FB4FE02BC6FEFE7BAC
:103AF8000D90EF1E180FF14F46EFBD02C6BF28AC60
:103B080000469F37115F38B800CCFF42FCC00080E8
:103B18005E288104001DC4F8E307003C984F301A62
:103B280000002FD697009898D683E7FF15C04872F3
:103B3800F075E0F99DB7200F7EB0F61388F93B6F5A
:103B4800AD9D3C13E4777B40CC5F87E80F20D63EE1
:103B5800EF13402D0088F99DAFE0F901003CBF3D0F
:103B6800500B00C0D80F3E9EB55600C02FC8E17458
:103B7800F70300F1604A0C00005C7C006022AC2076
:103B880017006612255E7403781A0BABB0F64AE488
:103B9800F3FB826CF83D18FDBFF7FEBFC2B801BE4B
:103BA8006F00207A27E0D9BB9F0C72CCEF2C10BF96
:103BB800FB1F609ED3DE9217B223560D0C88C018E7
:103BC8004808186FC903F946AC02C058DFFFDEB3D6
:103BD800BF95000078F6EE2789F1F4FF570080B111
:103BE800BF0180FAFD0200E67F90EBF7BFF7FEBF4A
:103BF80019D42D00FA0DF9FDBB12F9BCE70DF1152A
:103C0800C05CACFF0380791FF115309AB791BDEF06
:103C1800FDFF16E25BE20D70434FACBD06597D0A0D
:103C28003DE50FE6F02C740720BE817778063EF15B
:103C3800432DC6EFDEFF1BE2C2E5650C3370A95DBC
:103C4800E4FC1889F1A8F0E345140D54B2E088A506
:103C58008CC0430EC0531550E14A05C904E8DFAFD4
:103C6800C0E3897020000060480C00000057000085
:103C7800000060400000C011112E2413A07FBF0275
:103C880029A5071E72009EAA008F471989281AA81D
:103C9800644185EDC70797DA45CC8F91704519C304
:103CA8000CD464FCEE3D6F880BA354F08A1FBC0B48
:103CB80020BE0197C6333C0BFA3F07597D0ABE6107
:103CC800269CD013F2DDF7FE7F0BF4231BE48FF75D
:103CD8000500E2B7C409E07999FF0700EB96F806FA
:103CE800C0FC427EFFAE443EEFE990FF02E0D945BA
:103CF800AEDFFFDEFBFF66F0EC0100F9FB0600EA31
:103D0800F70500E0D9BB9F24C6D3FF5F0160BCFB69
:103D1800DEFFF700DF9E837CBE1FFC1E807A19C57C
:103D2800F8DDBB0733154E312ECA3A67270C1C2223
:103D3800068080F9FDEFBD17A8FFFB2480FC120068
:103D48007E41FDEEBD1724F92B008B0980879A214F
:103D5800E61F7C78CF3D6F62180D780693F57B528D
:103D6800D4F77D550BB0EE7DB1EE7DC17845335E5D
:103D7800D11027FC429CF00BF8A57AF8A57A603D93
:103D8800E2653DE285F1F2A6F1F2269C3016278C19
:103D9800055F72F9920BCFC31C9E8739000208F0A9
:103DA8003CACE17958037CC9E54B2E70C2589C3075
:103DB80016182F6F1A2F6F82F58897F58817F8A5B0
:103DC8007AF8A57A409CD0214EE800E395CD786535
:103DD8008F7BEFBDF7DE7BEFBDF7DE7B01000000D8
:103DE8008071EFBDF7DE7BEFBDF702000000000039
:103DF80000000000000060DC7BEFBDF7DEBB0000C8
:103E0800000030D6EF7FEFD9DF4A00003C7B7725F2
:103E1800319EFEFF0A0030F6370050BF2F0060FECB
:103E280007B97EFF7BEFFF9BC1730B807E437EFF4C
:103E3800AE443EEFE9105F01ACC5FA3F0058B7C485
:103E48003780F18AAF0180F82D7102DCD00FF7DEE0
:103E58007BEF3DBF95D05336CCE1990044F55EF039
:103E68000E33F1133F0020FA814B53E90DC0B9F727
:103E7800DE5D348C52E12F2600181F197045793CFD
:103E88000100449250611B060020530CF0C8E00F5B
:103E980000E2B92C20CD048073EF3D5FAA17200102
:103EA80000A03E0092010050FF00C8E00038F7DE95
:103EB800FB4BA381340D0300A8C3021E43A90000D5
:103EC8000611F084BF1F13000070C4630C6F00005C
:103ED800802A0B9FF801001878F9610ECF02008341
:103EE800C59766C20D3DB9F706B0EF7D7C8F6C3083
:103EF8009AF70500E2F78813C06CE6FF01C0BA25FF
:103F0800BE01B0DE90DFBF2B91CF7B3AE4BF0098B3
:103F18007B90EBF7BFF7FEBF193C7B0040EE6F00CC
:103F2800A0F617008067EFAE24C6D3FFDF0078EE57
:103F3800BDF7DE7BEFBDF7DEFB000000008078FFF9
:103F4800F7DF01E3CE946B27F10F90870EF5BF7B67
:103F580018D3125F1AFFF08F5081783C1800110AAD
:103F6800E29196FCA5F1859F5FA8FFDD2597FC07E8
:103F7800C88BB167CAB51380880000F09C7306002F
:103F88000000000000000000000000000000000029
:103F980000000000C0FFDE7BEFBD1FF6BDF7DE7B33
:103FA800070000000000FF7BEFBDF77ED8F7DE7B3F
:103FB800EF1D0000000000000000000000000000ED
:103FC80000000000000000005155010050BFDF2F25
:103FD80001000000000070EFBDF7DE7BEFBDF7DEEB
:103FE8007BEF03000000000044EF73CF6F0275D72A
:103FF8000851EF3F31BE00E4C50DF1DEFB7FC84735
:104008000E7A925F9054D502207FBF5FC00C0AC021
:10401800686A00D43FE407F07C216F00D617C64ECB
:10402800C0DBCC1D806F8AF705C4EF91FF09F0153E
:10403800B9EFBDF7DE3B4C000000C078F7BDFFDFED
:1040480004EF9E83ACF73F5813200F2FE377EF7FE1
:104058009233D69CB7C83738F1BEEF00B800E30BEF
:10406800F1807BEF7EC49700C4AF0010DF07DC7BD4
:10407800FFCDB300723DFCEAFFFF2740CCCC3C45A6
:10408800AC62E5C3F8DD7B3AC4EB2B80F806BFDFF2
:104098004CB2FA1698F7DEFB6034DE8738C13BF184
:1040A80025EFC42ADE09A7F29DF0BFF70E00E3DE74
:1040B800FB070000000000000000000000000000F6
:1040C80000000000000000000000000000000000E8
:1040D8000000001600000900C00500A000BC00B9DF
:1040E80000EB01D0EF209E5F0360EE7BCF576600A8
:1040F8000A60BE03D07B0EF2D9AF6FCE078C77DF94
:10410800FBFF06EB7D1B0000000000000000000024
:10411800000000000000000000C8F5FBDF7BEFBDD9
:1041280077407CFFAE0440DD0700185F00004E00BA
:10413800003A01001E00809100000F00800000007E
:10414800000000000300C00300200A00C005005062
:104158000F00806F0000D80F0080EF570000F53B7C
:10416800BF5E732600A256BFEF04000000000000E7
:104178000000000000000000000000000000000037
:10418800F09EB3CC19D1E3C2BC30E78CE861DF1BE9
:104198008821BEC913A2DE579DFF6406F92609834C
:1041A80060FC42E5BABB8C4F18CFB70390EB1FF009
:1041B800FCFE9D8CF77C05B1670010038CDEE7855B
:1041C800D86B0000000000000000000000000000A4
:1041D800F5FDEFFDBF03F0FD9E24E7FEC0EF01787B
:1041E8007E58C5D8F7FE06B578C93DA89DBC2AF803
:1041F800013F620C14507820818100000000800487
:104208000662A0804256F0037E4479C95D8C9DBC4D
:10421800AC62FCEEDD835AF83D00CF0F7CBF99E419
:10422800FC7DF8DD3BE177EF04DED0036FE801F2B7
:104238001507F98A03AC215FAC215FE032272E73A2
:1042480082B1E8642C3A41A738E8140778192F5E40
:10425800C60BEA613ED4C37C0000807A980FF53023
:104268001F78192F5EC60B9DE2A0531C18934EC6EB
:10427800A4136E981337CC096BC8176BC817E215CF
:1042880007F18A03BED0035FE80180F16E000000E9
:10429800B1F69E010000A8EFF6000000F0FC9E00B9
:1042A80000F0BC0010090044CF3F40F53E05007403
:1042B8007A00CF6F0D00C098B2010000B83400003A
:1042C8000073A807000040B478010000F8853701A2
:1042D8000000D42317000000CD0B0000C01A9E0276
:1042E800000090AFF8817DEF0500F08637A0070049
:1042F800009E3216D4020080E642BC00E0BDF78F73
:104308004E73C0970200C098A261969C00003AFCC8
:1043180002D9E25C008059EA81137E0300205ABC6E
:10432800D0C37C00007498895AEA050030A66CC492
:104338002B3F00002E0D9DF2DC7B1BF73E80353CA9
:104348000F240000C42B1A00008015DE04BF7BEF89
:10435800BDF736EE7D80F9AB05000000F5030000DF
:1043680000000000C0783700000062ED3D03000047
:10437800407DB7070000009EDF130000CF0B0088C8
:104388000400D1F30F80EA7D0A00747A00787E6B0E
:10439800000063CA060000804B030000C01CEA014D
:1043A800000040B478010000E017DE040000403D42
:1043B8007201000040F3020000C01A9E0200004093
:1043C800BEE287E87DEEF94D00006F7883BA6B8412
:1043D800A8770700F094B1185F00C60700341737B4
:1043E800C47BEFBFA801BCF7FEE9340739E8497E72
:1043F80028008C291AAA6A410400D0E117C8DFEF07
:104408001730820460967A0040130F8068F10280AA
:10441800AF68003ACC0480EF614E0063CA0680EFB3
:10442800E17901B83400FC1EE607C01A9E0700BFF8
:10443800A25F00E2150D40FC4AFC160056781340B6
:10444800FC4BEE0280F9AB05C037C8FFBDF7DE7B39
:1044580007503F004C000000000000F5FDEFFD7F15
:104468000F0000E0F77B927CBE5F0000C05700F5AC
:104478000100603CD4BE771795009E17B0AAEA1BCE
:104488008CC602889E7FA07EBF5F004C804E0F00C6
:104498005097310063CA0620EEBDBF611C804B03F4
:1044A8000018270173A80700C0D80F102D5E0088D8
:1044B8007BEF2EF14BF00B6F02008C5F8807EA91BF
:1044C8000BC0789E0206079A1780DFF77DC020B0E0
:1044D80086A700F813BFC1F8059B7CC50FF6BD176A
:1044E8004F51FBDE5D54F18637D003F015407D3C1B
:1044F800652CD40288DFF724F9FC7E4173112F0064
:104508009EEF7FEFFF2B749A035F0A00008C291A35
:10451800B3E4040040875F902DCE050060967A7062
:10452800C26F0000102D5EF4301F00007498492DF2
:10453800F50200604CD9C42B3F0000B8343AE5B905
:10454800F736EE7D00ACE17990000040BCA2010096
:1045580000B0C29BF0BBF7DE7B6FE3DE0760FE6A4C
:1045680001000080FA0100000000000040FEEE1E7D
:10457800004097D100C0C20300141E00A0CB7801F0
:1045880080F8DD9D00000000000000008071EFFD54
:104598000100130100FC9100C0833F0098493C00D2
:1045A800508D0680FA826702A0BEA03E00E4178CF8
:1045B8000F004E90FF00C01AC40D00F8D0090095F6
:1045C800E40400030F00707001000800BF7BEF7364
:1045D80070004CCC81076024312AC905C4C1E48726
:1045E800FE063177922F73E2D9F79E37C91378DF29
:1045F80000507B8079DF2789B1F62F0050E7DEDB9A
:10460800000080FA82550000806A7C090000982F1B
:104618007100000066335E000080B5B204000040FF
:10462800FF7F6F000000000000C073EFFD00000076
:104638000E2A00008028C404000026F80000800F1D
:10464800E40000804A0A1F0000FCF10E1600002C4E
:1046580046FE880900C00C7E26FE0000FC89298AD7
:104668004A00802C9EE0E00300F870F0040F00C0C0
:10467800433CB0C802002A59E0C301000E3E309204
:104688000A00882207F0110B0066F0011E7C00F07A
:10469800C303C8620C00C6A012E08F1F001FFE00F3
:1046A8005630015878EFBDF7DE7BEF09E20178025A
:1046B80000800370000050016431EEBDF7DE7BEF2F
:1046C800BDF7BE98C0831F0058F8800F0F008822DE
:1046D8000B2A190900FCF187831F006061055178D6
:1046E800000051C462052301000E3E3EFC00005448
:1046F80030720C3C0000E2C1070030EFBDF701004A
:104708000046E37D0000409CE09D0000C097BC137C
:10471800000058C53B010000A7F29D000000EFEF24
:104728003F010000000000C073EFFD0000000E2AEA
:1047380000008028C404000026F80000800FE40070
:1047480000804A0A1F0000FCF10E1600002C46FEED
:10475800880900C00C7E26FE0000FC89298A4A00D0
:10476800802C9EE0E00300F870F0040F00C0433C8A
:10477800B0C802002A59E0C301000E3E30920A0078
:10478800882207F0110B0066F0011E7C00F0C303BD
:10479800C8620C00C6A012E08F1F001FFE00563032
:1047A800015878EFBDF7DE7BEF09E201780200805F
:1047B8000370000050016431EEBDF7DE7BEFBDF7FA
:1047C800BE98C0831F0058F8800F0F0088220B2A5C
:1047D800190900FCF187831F00606105517800000A
:1047E80051C462052301000E3E3EFC0000543072A5
:1047F8000C3C0000E2C10700F3DE7F020000E64B3C
:10480800DE040000F3158FBC030000F3E5F73DF26A
:104818003F0000AC97F7F13DE23F0000712AD7C492
:1048280057A30A0010EFEFDFE0B7BF050000000054
:1048380000E0B9F77E00000007150000401462028E
:104848000000137C0000C0077200004025850F009F
:1048580000FE78070B000016237FC4040060063FA3
:10486800137F0000FEC41445250040164F70F00168
:10487800007C3878820700E0211E58640100952CDE
:10488800F0E10000071F18490500449103F8880566
:104898000033F8000F3E00F8E10164310600635070
:1048A80009F0C70F800F7F002B98002CBCF7DE7B28
:1048B800EFBDF704F1003C0100C001380000A8007A
:1048C800B218F7DE7BEFBDF7DE7B5F4CE0C10F006F
:1048D8002C7CC0870700449105958C0400FEF8C322
:1048E800C10F00B0B082283C00802862B1829100DC
:1048F80000071F1F7E00002A1839061E0000F1E07D
:10490800030040560200E2FDDFFF02BFDF7F0080A8
:10491800DC3365FF6778961800E04D90EFB95F5873
:1049280000204AFCEEE900A3014066BC25D69D297B
:10493800D73F00C0F89F05F1FEEFBF03000000005D
:10494800000000000078EEBD1F0000C04105000017
:104958001085980000C0041F0000F0811C00005062
:1049680049E10300803FDEC1020080C5C81F310154
:104978000098C1CFC41F00803F314551090090C540
:10498800131C7C00001F0E9EE00100788807165952
:104998000040250B7C3800C0C1074652010051E495
:1049A800003E6201C00C3EC0830F007E7800598C27
:1049B80001C0185402FCF103E0C31FC00A26000B13
:1049C800EFBDF7DE7BEF3D413C004F000070000E6D
:1049D80000002A802CC6BDF7DE7BEFBDF7DE17137B
:1049E80078F003000B1FF0E1010051644125230119
:1049F800803FFE70F003002CAC200A0F00208A587C
:104A0800AC602400C0C1C7871F00800A468E81079A
:104A180000403CF800F1BBFF01E6390D00784B5E21
:104A2800C88E5805000C0C88C0000006120206004B
:104A3800F0963C906FC42A00207EF73FC03CA70147
:104A4800000000000000000080E7DEFB0100001C01
:104A58005400000051880900004CF00100001FC8F4
:104A680001000095143E0000F8E31D2C0000588C4E
:104A7800FC1113008019FC4CFC0100F81353149529
:104A88000000593CC1C10700F0E1E0091E00808721
:104A9800786091050054B2C08703001C7C6024151F
:104AA8000010450EE0231600CCE0033CF800E08738
:104AB8000790C518008C4125C01F3F003EFC01AC83
:104AC8006002B0F0DE7BEFBDF7DE13C403F0040034
:104AD8000007E00000A002C862DC7BEFBDF7DE7BC8
:104AE800EF7D3181073F00B0F0011F1E0010451611
:104AF80054321200F8E30F073F00C0C20AA2F000C8
:104B080000A288C50A4602001C7C7CF80100A86047
:104B1800E418780000C4830F00F99DFB5F0000C013
:104B2800D84FC8DE0000E046FDEFCED100001823C4
:104B38007E69BC260000A6071E11000084071E110E
:104B4800000054C617C66B0100C089E7DC9DA301AD
:104B58000060EC2764EF000000F99DFB5F00000097
:104B6800000000E0B9F77E000000071500004014BF
:104B780062020000137C0000C00772000040258517
:104B88000F0000FE78070B000016237FC4040060A6
:104B9800063F137F0000FEC41445250040164F70E1
:104BA800F001007C3878820700E0211E586401007B
:104BB800952CF0E10000071F18490500449103F8FF
:104BC80088050033F8000F3E00F8E1016431060063
:104BD800635009F0C70F800F7F002B98002CBCF79B
:104BE800DE7BEFBDF704F1003C0100C00138000096
:104BF800A800B218F7DE7BEFBDF7DE7B5F4CE0C1A3
:104C08000F002C7CC0870700449105958C0400FE9A
:104C1800F8C3C10F00B0B082283C00802862B1827E
:104C2800910000071F1F7E00002A1839061E000089
:104C3800F1E00300C0B8F7DE7BEFBDF7DE7BEFBD28
:104C4800F7DE3F0000B80000000000D600000000BA
:104C5800008817A87BEFBDF7DE7BEFBDF70F00805C
:104C68005F3000000000403D44630200000068F42B
:104C7800040000008035A83900000000902F1A2495
:104C8800000000A083390400000000F5100D0000AA
:104C980000005E7400020000005632262400000066
:104CA800205F5C00000000F006730038F7DE7BEF41
:104CB800BDF7DE1B00E029A2810900000034DE00F8
:104CC80000000080958C0580EFDE7BEFBDF7DE7B72
:104CD8000300F9E20224000000BCC11C000000002F
:104CE800F014E6BDF7DE7BEF9D48000040030000AE
:104CF8000000E80400000000C849DE7BEFBDF7DED5
:104D08007BEF870B0000DEE00700100000F014398D
:104D18000100000040E30700020300009DE40400D6
:104D28000B0100C098F801000000800E72020050CC
:104D3800F7DE7BEFBDF7DE7BEF1D66E1070048007D
:104D48000088464E000000000088F9ED73EFFF5B15
:104D58000100E2BBEF33827CFA7C01C0739F00E064
:104D6800B90530BF207BDF7BFF9DC457C0F362FECF
:104D7800D740AEFF437C09F1C37A017C45BCD041E2
:104D880035005ED420161A00B2F063063500C01F45
:104D98000F1B1B007890E1410100A3AA6A64600020
:104DA800007EBFDF2F27020000040600000000007D
:104DB800000000000000000000000000002030009B
:104DC80000C0440000800C0C00C0FBBE6F7A50008D
:104DD80040CE39E7B0B101804286894A00F0C74326
:104DE8003C7801200B1F3AA80580174F227FE80561
:104DF800E02BE2079E85DE3389B1FE0FF105D01D59
:104E08008CF77FEFD99DE4BF00D6BF0088B90700B3
:104E1800E3B7BB9218CF7BDF000063FD82B3BF19F5
:104E280000006288DF0400802744BD2F0000EAFCF0
:104E38002733000020DF24010080410000C0F885EE
:104E48004A0000D6DD657C000008E3F97600803A68
:104E5800F7DE0600D417AC020054E34B00C07C898F
:104E68000300309BF10200AC95250000FAFF7B039C
:104E7800000000C6BDF7DE7BEFBDF7DE7BEFBDF7B8
:104E88000F0000000000B8F7DE7BEFBDF7DE7BEF18
:104E98001F000000000000000000000000000000EB
:104EA800000000000000000000000070EFBDF7DE09
:104EB8007BEFBDF7070000000000E0DE7BEFBDF7E9
:104EC800DE7BEF0F00000000000000000000000083
:104ED80000000000000000000000000000000000CA
:104EE80000B8F7DE7BEFBDF7DE7BEF0500000000C2
:104EF8000000E6BDF73E00C068BC0F008813BC1375
:104F080000F892770200AB782700E054BE1300E067
:104F1800FDFD2700000018F7DE7BEFBDF7DE7BEF15
:104F2800BDF7DE3F0000000000E0DE7BEFBDF7DEEE
:104F38007BEFBD7F000000000000000000000000C3
:104F48000000000000000000000000000000C0BDDC
:104F5800F7DE7BEFBDF7DE1F0000000000807BEF6F
:104F6800BDF7DE7BEFBD3F00000000000000000041
:104F78000000000000000000000000000000000029
:104F880000000000E0DE7BEFBDF7DE7BEFBD170021
:104F9800000000008079EF3F0100F3256F0280F9DF
:104FA8008A47DE0180F9F2FB1EF91F00D6CBFBF819
:104FB8001EF11F8038956BE2AB510588F7F76FF04B
:104FC800DBDF02000030EEBDF7DE7BEFBDF7DE7BF6
:104FD800EFBD7F0000000000C0BDF7DE7BEFBDF72E
:104FE800DE7BFF0000000000000000000000000061
:104FF80000000000000000000000000000807BEFBF
:10500800BDF7DE7BEFBD3F000000000000F7DE7B50
:10501800EFBDF7DE7B7F000000000000000000000D
:105028000000000000000000000000000000000078
:10503800000000C0BDF7DE7BEFBDF7DE7B2F000070
:1050480000000088DFFD0F30CF69C05BF24276C4F4
:105058002A60604004063090103080B7E4817C23D9
:105068005601F1BBFF01E6390D00000000008C7B02
:10507800EFBDF7DE7BEFBDF7DE7BEF1F0000000022
:105088000070EFBDF7DE7BEFBDF7DE3F00000000EC
:105098000000000000000000000000000000000008
:1050A800000000000000E0DE7BEFBDF7DE7BEF0FC5
:1050B8000000000000C0BDF7DE7BEFBDF7DE1F007B
:1050C80000000000000000000000000000000000D8
:1050D80000000000000000000000000070EFBDF7B5
:1050E800DE7BEFBDF7DE0B00000000409D7B6F43C9
:1050F8007DC12AA8C697305FE280D98C17AC952568
:1051080040FF7F6F0000EEBD770000000000000048
:105118000000000000000000000000000000000087
:105128000000000000000000000000000000000077
:1051380030EFBDF7C168BC0F718277E24BDE89554D
:10514800BC134EE53BC1FBFB4F00807BEF1D00000D
:105158000000000000000000000000000000000047
:105168000000000000000000000000000000000037
:1051780000000000008079EF3F01E64BDE04E62BDB
:105188001E7907CC97DFF7C8FF60BDBC8FEF11FF12
:1051980011A7724D7C35AAE2FDFD1BFCF6B7000095
:1051A80070EFBD03000000000000000000000000D8
:1051B80000000000000000000000000000000000E7
:1051C80000000000000000000000000000000000D7
:1051D8000000000000000000000088DFFD0F30CF55
:1051E800696FC90BD911AB060644600C24048CB74F
:1051F800E4817C2356C5EFFE0798E73400000000E1
:10520800DC7BEF0000000000000000000000000050
:105218000000000000000000000000000000000086
:105228000000000000000000000000000000000076
:105238000000000000000000000000000000E0BDC9
:10524800F7DE7BEFBDE7FFAD040000443EFDFF1530
:10525800000000F5FB0200CC7BEFBDF7FF169E9D1A
:105268000000C8F9DB83BC010000C62EF203000071
:105278007C494D0000205EFC00000035C807000096
:10528800F0E10000000A0F0000208318000080C42D
:105298000400002CE4B8F74ECC7BEFBD3F8004003F
:1052A80000000000008071EF9D98F7DE7B7F000012
:1052B80000009000000058480000406202000019F9
:1052C800C40000001E3C0000800F07000098493E03
:1052D8000000201B3F00009027A8090000CF1EE413
:1052E800070020C6DA5F90370030EFBDF79EDD0378
:1052F800CF4E000040FDBE0000408CE7FDFF0A00D5
:105308000040560240BCFFFB5FE0F7FB0F0072CF86
:1053180094FD9FE1596200F026C8F7DC2F2C00A20B
:10532800C4EF9E0E301A80CC784BAC3B53AE7F0056
:1053380030FE6741BCFFFBEF00000000000000E00A
:10534800B9F79E0100B8F7DE01710100008C050075
:1053580000E04D00008038000000C6020000F02682
:10536800000064122F000068D4040080E7410700A1
:1053780000FC82F80000207EA80700009EC22F00D3
:1053880000E00BE2070000D1781E000098850E00AF
:10539800007883FC010040BE780A0000D6C00B00EC
:1053A800004E902F0000E48B390000600D1C0000B7
:1053B80070836C000018137300004027710100C04F
:1053C800C100000063010000E8040000F0020000D2
:1053D800A8090000E04D0000002F00EADC7B1B005C
:1053E80000D417AC020000D5F8120000CC973800A2
:1053F80000C06CC60B0000AC9525000080FEFFDEE7
:10540800000000000000627EFBDCB3BF190040BC56
:10541800F77D4688F1BCF70D00D49E0120E62E00EA
:10542800F525D9FBDEBB3BC9AF00E30B9EFF1A187D
:10543800EBFF10DF004E303F00DF240E58C9780123
:10544800F00E72C18B06008D0F4F300A005492C5C2
:10545800C50F00F0E14FA100000325020300F02072
:1054680025120020604C000090001300004C000042
:105478000000000000000000300100C09C00002077
:10548800219000000123030300F02029140060A0EC
:10549800B8F801007ED83CC1280050837CF0E205B2
:1054A800008D0F56921F007A900B9CE0F900BC8B80
:1054B80038C0F882E7AC81B1FE93F806A0BE247A22
:1054C800DF7B7727F11580DA3300C4BC058078EFDD
:1054D800FB8C10E379EF1B000060DE7BEF0300001C
:1054E800A3F13E00008813BC130000BEE49D000039
:1054F800B08A7702008053F94E0000E0FDFD2700D6
:105508000000000010F3DBE79EFDCD0000E2BDEFD8
:1055180033428CE7BD6F00A0F60C00317701A82F4D
:10552800C9DEF7DEDD497E05185FF0FCD7C058FFFD
:1055380087F8067082F901F82671C04AC60B807791
:10554800900B5E3400687C78825100A0922C2E7EED
:1055580000800F7F0A05001828111800800729917C
:10556800000001630200800498000060020000004F
:1055780000000000000080090000E6040000098126
:1055880004000818191800800749A1000003C5C5C0
:105598000F00F0C3E6094601801AE483172F00685C
:1055A8007CB092FC00D0835CE004CF07E05DC401CE
:1055B800C6173C670D8CF59FC43700F525D1FBDE77
:1055C800BB3B89AF00D49E0120E62D00C47BDF677A
:1055D8008418CF7BDF000030EFFD270000982F797B
:1055E800130000F3158FBC0300C07CF97D8FFC0FFE
:1055F80000C07A791FDF23FE0300C4A95C135F8D06
:105608002A0010EFEFDFE0B7BF050000000040CC34
:105618006F9F7BF637030088F7BECF08319EF7BE31
:105628000180DA3300C4DC05A0BE247BDF7B77274A
:10563800F915607CC1F35F0363FD1FE21BC009E637
:1056480007E09BC4012B192F00DE412E78D100A062
:10565800F1E1094601804AB2B8F801003EFC29147C
:105668000060A0446000001EA4440200048C0900ED
:105678000012600200800900000000000000000025
:1056880000260000981300002404120020606460C3
:1056980000001E248502000C14173F00C00F9B2732
:1056A8001805006A900F5EBC00A0F1C14AF20340E1
:1056B8000F7281133C1F80771107185FF09C3530FB
:1056C800D67F12DF00D49744EF7BEFEE24BE025062
:1056D8007B068098B70010EF7D9F11623CEF7D0339
:1056E8000000202B0140BCFFFB5FE0F7FB0F00E44C
:1056F8009E29FB3FC3B3C400C09B20DF73BFB0002B
:1057080010257EF77480D100C88CB7C4BA33E5FA87
:105718000700C6FF2C88F77FFF1D0000000000006F
:10572800000020E6B7CF3DFB9B0100C47BDF678408
:1057380018CF7BDF0040ED190062EE02505F92BD8A
:10574800EFBDBB93FC0A30BEE0F9AF81B1FE0FF1AB
:105758000DE004F303F04DE280958C1700EF20175D
:10576800BC6800D0F8F004A3004025595CFC000098
:105778001FFE140A003050223000000F5222010090
:1057880002C604000009300100C004000000000047
:105798000000000000130000CC09000012020900FC
:1057A8001030323000000F92420100068A8B1F0031
:1057B800E087CD138C020035C8072F5E00D0F86053
:1057C80025F901A007B9C0099E0FC0BB88038C2F1B
:1057D80078CE1A18EB3F896F00EA4BA2F7BD7777AE
:1057E800125F01A83D0340CC5B0088F7BECF0831AB
:1057F8009EF7BE0100F1BBFF01E6390D00DE9217EE
:10580800B2235601C0C080080C001848081800F0E0
:10581800963C906FC42A0088DFFD0F30CF690000E6
:1058280000000000000010F3DBE79EFDCD0000E261
:10583800BDEF33428CE7BD6F00A0F60C0031770155
:10584800A82FC9DEF7DEDD497E05185FF0FCD7C05A
:1058580058FF87F8067082F901F82671C04AC60B0E
:105868008077900B5E3400687C78825100A0922C7F
:105878002E7E00800F7F0A05001828111800800767
:105888002991000001630200800498000060020072
:10589800000000000000000080090000E60400008D
:1058A800098104000818191800800749A10000039D
:1058B800C5C50F00F0C3E6094601801AE483172F17
:1058C80000687CB092FC00D0835CE004CF07E05D08
:1058D800C401C6173C670D8CF59FC43700F525D168
:1058E800FBDEBB3B89AF00D49E0120E62D00C47BC4
:1058F800DF678418CF7BDF00F82500CCC6AF6E02C7
:1059080030DFD5BE923701E6CB5A6F903781F96206
:10591800CCF10FF2263C2FC63F8C7F9037A91FC6CB
:105928003F30FE41DEAC2F18FF00E30BF27EC1F8DA
:1059380007A0BE2083F10F00F5058C7F0000000052
:10594800F5058C7F00A82FC860FC03505F90F70B0B
:10595800C63F407D41DEAC2F18FFC0F882BC497DB0
:10596800C1F887F10FF226D4178C7FBC41DE04EA18
:105978000BC6FC0D7913A07EAC15FFBA09C0F3AEB7
:1059880006000058FFFF0488F9ED73CFFE6620DF9C
:105998003481E8FB3E23C478DEFB8637BCC0D82BB5
:1059A80000C4DC6F9905EA9F64EF7BEF5E414ED936
:1059B800607CC1FCAF81D17BC017E004F305C87FD0
:1059C800E2032B192F000672C1870B805FC08B275B
:1059D800190380E751413C6CFC008816EFC2A650C1
:1059E80000747A73A3446200A8692C0B198904E037
:1059F800E592901300745A03890500C6940D1000AF
:105A0800E08617000058C3530000205FF1034000F0
:105A1800F0860E00626180A7D4040CAC4404E2272F
:105A28005E804046A2F00B6F0206322C6CEA3116FB
:105A3800406171B178C505B0717982589DE600184A
:105A4800453C78F14ED9001A2FAC24C20BA08B5CD0
:105A5800E00402402FE20546237E5F21D77FA10B99
:105A6800F007CFEFDEFBEF247E13F0949A0120E6D7
:105A78002D40FCC4F7DEF71921C6F3DE37003A746F
:105A880088F9ED73CFFE660008734D000000EADC6C
:105A98007B1B0080FA8255000054E34B0000E64B64
:105AA8001C0000CC66BC0000582B4B0000A0FFBFB8
:105AB8003700000000DC7B6F0080B8F7DE000000D4
:105AC80000000000000000000000000000000000CE
